:020000040800F2
:100000000028002031100008C10F0008C70F0008A9
:10001000CD0F0008D30F0008D90F00080000000022
:10002000000000000000000000000000DF0F0008DA
:10003000EB0F000800000000F70F00080310000895
:10004000791000087910000879100008791000086C
:10005000791000087910000879100008791000085C
:10006000791000087910000879100008791000084C
:10007000791000087910000879100008791000083C
:10008000791000087910000879100008791000082C
:10009000791000087910000879100008791000081C
:1000A000791000087910000879100008791000080C
:1000B00011100008791000080000000079100008F5
:1000C000791000080000000000000000791000080E
:1000D00000000000791000087910000800000000FE
:1000E000791000087910000879100008000000005D
:1000F0000000000000000000000000000000000000
:0C01000000000000000000005FF808F1A3
:10010C0010B5054C237833B9044B13B10448AFF345
:10011C0000800123237010BD14000020000000009B
:10012C007826000808B5034B1BB103490348AFF30D
:10013C00008008BD00000000180000207826000890
:10014C0080B483B000AF0346FB71FB79044AA2FB79
:10015C000323DB08DBB218460C37BD4680BC704766
:10016C00CDCCCCCC80B483B000AF0346FB71FA7914
:10017C00074BA3FB0213D9080B469B000B445B00F7
:10018C00D31ADBB218460C37BD4680BC704700BF93
:10019C00CDCCCCCC80B500AF002240F6FF7102482C
:1001AC0001F067FA00BF80BD0008014080B500AFC8
:1001BC0001220121024801F05CFA00BF80BD00BFA2
:1001CC000008014080B500AF01221021024801F067
:1001DC0050FA00BF80BD00BF0008014080B500AFE1
:1001EC0001224FF48071024801F043FA00BF80BD38
:1001FC000008014080B500AF01220221024801F045
:10020C0038FA00BF80BD00BF0008014080B500AFC8
:10021C0001222021024801F02CFA00BF80BD00BF52
:10022C000008014080B500AF01224FF40071024874
:10023C0001F01FFA00BF80BD0008014080B500AF7F
:10024C0001220421024801F014FA00BF80BD00BF56
:10025C000008014080B500AF01224021024801F0A6
:10026C0008FA00BF80BD00BF0008014080B500AF98
:10027C0001224FF48061024801F0FBF900BF80BD00
:10028C000008014080B500AF01220821024801F0AE
:10029C00F0F900BF80BD00BF0008014080B500AF81
:1002AC0001228021024801F0E4F900BF80BD00BFAB
:1002BC000008014080B500AF01224FF400610248F4
:1002CC0001F0D7F900BF80BD0008014080B485B0B3
:1002DC0000AF786039600023FB730023BB73204BA5
:1002EC001B78032B26D801A252F823F0090300082F
:1002FC00170300082503000833030008194B1B786B
:10030C00FB73194B1B78BB7314E0164B1B78FB73F8
:10031C00154B1B78BB730DE0124B1B78BB73134B47
:10032C001B78FB7306E00F4B1B78BB730F4B1B78D2
:10033C00FB7300BFFB7B632B01D96323FB73BB7B7C
:10034C00632B01D96323BB737B68FA7B1A703B6800
:10035C00BA7B1A7000BF1437BD4680BC704700BF13
:10036C003100002032000020030000200600002095
:10037C0080B485B000AF0346FB71FB79092B04D820
:10038C00FB79094A32F8133000E00023FB81074B5C
:10039C004FF47E421A61FB89044A1B04136100BFAF
:1003AC001437BD4680BC704790260008000C0140F5
:1003BC0080B500AF01224FF4F071024801F059F9F9
:1003CC0000BF80BD000C014080B584B000AF034677
:1003DC00FB71FB79002B0CD0FB79012B07D0FB793F
:1003EC00022B01D1802305E04FF4807302E04023FF
:1003FC0000E02023FB81FB8900221946034801F011
:10040C0038F900BF1037BD4680BD00BF000C01405D
:10041C0080B584B000AF03460A46FB711346BB712E
:10042C00534B1A68534B1B68D31A002BC0F29B809A
:10043C004F4B1B68FA334F4A13604F4B1B7883F0BA
:10044C000103DAB24C4B1A70FFF7A4FE4A4B1B782F
:10045C00002B24D0FB79042B18D0042B20DC022B8E
:10046C0002D0032B09D01BE0FFF7A0FEFFF7C2FE62
:10047C00FFF7E4FEFFF706FF12E0FFF7A3FEFFF71E
:10048C00C5FEFFF7E7FEFFF709FF09E0FFF7A6FE41
:10049C00FFF7C8FEFFF7EAFEFFF70CFF00E000BF16
:1004AC000023BB7300237B7300233B730023FB727D
:1004BC000023BB73FA79314BA3FB0213D9080B460B
:1004CC009B000B445B00D31A7B73BB792B4AA2FBBA
:1004DC000323DB08DAB2294BA3FB0213D9080B4622
:1004EC009B000B445B00D31A3B73BA79234BA3FBE1
:1004FC000213D9080B469B000B445B00D31AFB720A
:10050C000023FB731E4B1B78032B17D801A252F848
:10051C0023F000BF31050008370500083D05000831
:10052C0043050008BB7BFB7308E07B7BFB7305E09A
:10053C003B7BFB7302E0FB7AFB7300BFFFF738FFDA
:10054C00FB7B1846FFF714FF0D4B1B781846FFF783
:10055C003BFF0B4B1B780133DBB203F00303DAB226
:10056C00074B1A7000E000BF1037BD4680BD00BFBE
:10057C0070000020380000203C000020CDCCCCCCFA
:10058C003D00002080B582B000AF2C4B1A682C4B7C
:10059C001B68D31A002B4CDB284B1B68FA33284AF8
:1005AC0013607A1DBB1D11461846FFF78FFE002302
:1005BC00FB71244B1B78032B26D801A252F823F095
:1005CC00DD050008EB050008F90500080706000822
:1005DC007B791846FFF7B4FD0346FB7114E07B7979
:1005EC001846FFF7BFFD0346FB710DE0BB791846BB
:1005FC00FFF7A6FD0346FB7106E0BB791846FFF733
:10060C00B1FD0346FB7100BFFFF7D2FEFB79184624
:10061C00FFF7AEFE0B4B1B781846FFF7D5FE094BC8
:10062C001B780133DBB203F00303DAB2054B1A700B
:10063C0000E000BF0837BD4680BD00BF7000002041
:10064C00400000204400002080B500AFFFF7A2FD61
:10065C001A4B1B78032B2FD801A252F823F000BFA2
:10066C007D0600088F060008A1060008B3060008E6
:10067C00FFF7B4FDFFF7BEFDFFF7F8FDFFF702FE35
:10068C001AE0FFF79FFDFFF7B5FDFFF7E3FDFFF75E
:10069C00F9FD11E0FFF78AFDFFF7C4FDFFF7CEFD72
:1006AC00FFF708FE08E0FFF781FDFFF7AFFDFFF74E
:1006BC00C5FDFFF7F3FD00BF00BF80BD310000207A
:1006CC0080B582B000AF0346FB71194AFB791370F9
:1006DC00174B1B78032B1FD801A252F823F000BF35
:1006EC00FD06000807070008110700081B07000893
:1006FC00104B1A78104B1A700EE0104B1A780E4BE8
:10070C001A7009E00E4B1A780B4B1A7004E00D4B63
:10071C001A78094B1A7000BF0B4B1B6803F57A73E0
:10072C000A4A1360FFF790FF00BF0837BD4680BD33
:10073C0031000020040000203200002005000020C1
:10074C000100002002000020700000203400002076
:10075C0080B500AF1D4B1A681D4B1B68D31A002BBC
:10076C0032DB1B4B1B6803F57A73194A1360194B68
:10077C001B78002B05D0174B1B78013BDAB2154BBD
:10078C001A70144B1B78002B1FD1134B1B78032BA7
:10079C001BD801A252F823F0B5070008BD070008CA
:1007AC00C5070008CD0700080120FFF789FF0CE002
:1007BC000220FFF785FF08E00320FFF781FF04E02C
:1007CC000020FFF77DFF00E000BF80BD700000201F
:1007DC0034000020320000203100002080B400AF33
:1007EC00094B1A78094B1B781344DAB2084B1A7070
:1007FC00084B1A78084B1B781344DAB2074B1A7063
:10080C0000BFBD4680BC70470400002005000020DE
:10081C000300002001000020020000200600002040
:10082C0080B500AF002000F019FA0346002B0BD066
:10083C00744B1B78032B04D0724B1B780133DBB247
:10084C0000E000236F4A13706E4B1A786E4B1B78C6
:10085C009A4235D06B4B1A786B4B1A70694B1B78DC
:10086C00002B03D10020FFF72BFF2AE0FFF792FCAF
:10087C00FFF79EFD634B1B78032B18D0032B20DC5A
:10088C00012B02D0022B09D01BE0FFF78FFCFFF7E6
:10089C00B1FCFFF7D3FCFFF7F5FC12E0FFF792FC7D
:1008AC00FFF7B4FCFFF7D6FCFFF7F8FC09E0FFF705
:1008BC0095FCFFF7B7FCFFF7D9FCFFF7FBFC00E05A
:1008CC0000BF504B1B78032B00F29A8001A252F808
:1008DC0023F000BFF1080008FB08000861090008BC
:1008EC00B7090008FFF734FFFFF74CFE88E0012042
:1008FC0000F0B4F90346002B16D0444B1B7801339F
:10090C00DAB2424B1A70414B1B78632B02D93F4B26
:10091C0001221A703D4B1A783D4B1B78D31ADAB270
:10092C003C4B1A70FFF75AFF022000F097F9034670
:10093C00002B08D0FFF752FF324B00221A70324BBB
:10094C00FF221A705CE0314B1B7819460220FFF72E
:10095C005FFD55E0012000F081F90346002B0ED01D
:10096C002D4B1B780133DAB22B4B1A702A4B1B78A8
:10097C00632B02D9284B01221A70FFF72FFF02209C
:10098C0000F06CF90346002B08D0FFF727FF1D4B36
:10099C0000221A701C4BFF221A7031E01E4B1B7880
:1009AC0019460320FFF734FD2AE0012000F056F928
:1009BC000346002B0ED0194B1B780133DAB2174BC0
:1009CC001A70164B1B78632B02D9144B01221A7028
:1009DC00FFF704FF022000F041F90346002B08D07A
:1009EC00FFF7FCFE074B00221A70074BFF221A7010
:1009FC0006E00A4B1B7819460420FFF709FD00BFDF
:100A0C0000BF80BD3000002000000020030000204B
:100A1C00050000200400002002000020010000203E
:100A2C0080B582B000AF0346FB71FB79002B02D07E
:100A3C00012B06D00BE00121094800F003FE034610
:100A4C000AE00221064800F0FDFD034604E0042103
:100A5C00034800F0F7FD034618460837BD4680BD35
:100A6C00000C014080B483B000AF00237B6032E007
:100A7C001D4A7B68134401221A701B4A7B6813447D
:100A8C0019781A4A7B6813440A461A70184A7B680C
:100A9C00134400221A70164A7B6813441978154ABD
:100AAC007B6813440A461A70134A7B68002122F8AB
:100ABC001310124A7B68134400221A70104A7B6888
:100ACC00134400221A700F4A7B68134400221A70D8
:100ADC007B6801337B607B68022BC9DD00BF00BFE4
:100AEC000C37BD4680BC70475400002050000020DD
:100AFC00480000204C00002058000020600000201E
:100B0C00640000206800002080B582B000AF002394
:100B1C007B6089E0494A7B6813441978484A7B68B2
:100B2C0013440A461A707B68DBB21846FFF778FF4D
:100B3C0003461946414A7B6813440A461A703F4AD9
:100B4C007B6813441A783E497B680B441B789A42A5
:100B5C0067D13A4A7B6813441B78002B01D10123DF
:100B6C0000E00023FB70374A7B6813441B78FA784B
:100B7C009A422FD0FB78002B0FD0334A7B6813445A
:100B8C0001221A70314A7B68002122F81310304A76
:100B9C007B68134400221A700EE02E4A7B681344C3
:100BAC0001221A70294A7B68002122F81310284A66
:100BBC007B68134400221A70224A7B68134419780C
:100BCC00254A7B6813440A461A701E4A7B681344F4
:100BDC00FA781A701B4A7B6813441B78002B20D0C0
:100BEC001A4A7B6832F81330632B15D8174A7B6886
:100BFC0032F81330013399B2144A7B6822F813107F
:100C0C00124A7B6832F81330632B0AD9104A7B687E
:100C1C00134401221A7004E00D4A7B68134401222C
:100C2C001A707B6801337B607B68022B7FF772AF95
:100C3C0000BF00BF0837BD4680BD00BF500000207C
:100C4C0054000020480000206400002058000020C0
:100C5C0060000020680000204C00002080B485B0AB
:100C6C0000AF0346FB71FB79022B01D9002308E08E
:100C7C00FB79064AD35CFB73FB79044A0021D154FF
:100C8C00FB7B18461437BD4680BC704764000020BF
:100C9C0080B500AF00F0ECF900F01CF800F0A2F801
:100CAC0000F054F801224FF47E41084800F0E1FCBA
:100CBC0001224FF4F071054800F0DBFCFFF7D2FE87
:100CCC00034801F01BF9FFF7ABFDFCE7000C0140FA
:100CDC007400002080B590B000AF07F118032822F3
:100CEC000021184601F0BAFC3B1D00221A605A6024
:100CFC009A60DA601A610223BB610123BB62102384
:100D0C00FB6200237B6307F11803184600F0CAFC52
:100D1C000346002B01D000F0F1F80F237B60002379
:100D2C00BB600023FB6000233B6100237B613B1D08
:100D3C000021184600F036FF0346002B01D000F0CE
:100D4C00DDF800BF4037BD4680BD000080B586B0E1
:100D5C0000AF07F1080300221A605A609A60DA604B
:100D6C003B4600221A605A601D4B4FF080421A60BD
:100D7C001B4B41F63F725A60194B00229A60184B7C
:100D8C000122DA60164B00221A61154B00229A617F
:100D9C00134801F063F80346002B01D000F0AEF8C5
:100DAC004FF48053BB6007F1080319460C4801F05F
:100DBC00E1F90346002B01D000F0A0F800233B60C2
:100DCC0000237B603B461946054801F0B9FB0346FE
:100DDC00002B01D000F092F800BF1837BD4680BD43
:100DEC007400002080B586B000AF07F10803002224
:100DFC001A605A609A60DA60284B9B69274A43F064
:100E0C0004039361254B9B6903F004037B607B68AF
:100E1C00224B9B69214A43F0080393611F4B9B694A
:100E2C0003F008033B603B68002240F6FF711C484E
:100E3C0000F01FFC00224FF6E0711A4800F019FC7C
:100E4C0040F6FF73BB600123FB6000233B61022370
:100E5C007B6107F108031946114800F079FA072362
:100E6C00BB600023FB6001233B6107F108031946BB
:100E7C000C4800F06DFA4FF6E073BB600123FB6089
:100E8C0000233B6102237B6107F1080319460548E7
:100E9C0000F05EFA00BF1837BD4680BD001002405E
:100EAC0000080140000C014080B582B000AF7860B2
:100EBC007B681B68B3F1804F17D10E4B1B68023354
:100ECC000C4A13600C4B1B8802339AB20A4B1A80E3
:100EDC0007E0094B1B880A3B9AB2074B1A80FFF7B5
:100EEC0013FE054B1B88092BF3D800BF0837BD46F2
:100EFC0080BD00BF700000206C00002080B400AFEB
:100F0C0072B600BFFEE7000080B485B000AF154B91
:100F1C009B69144A43F001039361124B9B6903F0E4
:100F2C000103BB60BB680F4BDB690E4A43F0805377
:100F3C00D3610C4BDB6903F080537B607B680A4BFD
:100F4C005B68FB60FB6823F0E063FB60FB6843F0CD
:100F5C008063FB60044AFB68536000BF1437BD46D6
:100F6C0080BC7047001002400000014080B584B086
:100F7C0000AF78607B681B68B3F1804F13D10C4BCA
:100F8C00DB690B4A43F00103D361094BDB6903F0C6
:100F9C000103FB60FB68002200211C2000F0A1F97A
:100FAC001C2000F0BAF900BF1037BD4680BD00BF51
:100FBC000010024080B400AFFEE780B400AFFEE743
:100FCC0080B400AFFEE780B400AFFEE780B400AFA2
:100FDC00FEE780B400AF00BFBD4680BC704780B454
:100FEC0000AF00BFBD4680BC704780B400AF00BFEF
:100FFC00BD4680BC704780B500AF00F07FF800BFE5
:10100C0080BD000080B500AF024800F0C3FF00BFF8
:10101C0080BD00BF7400002080B400AF00BFBD468F
:10102C0080BC7047FFF7F8FF0B480C490C4A0023B3
:10103C0002E0D458C4500433C4188C42F9D3094A82
:10104C00094C002301E013600432A242FBD301F0EF
:10105C00E1FAFFF71DFE704700000020140000208D
:10106C00D026000814000020C0000020FEE700007D
:10107C0080B500AF084B1B68074A43F010031360A0
:10108C00032000F023F90F2000F008F8FFF73CFFD5
:10109C000023184680BD00BF0020024080B582B0FE
:1010AC0000AF7860124B1A68124B1B7819464FF43C
:1010BC007A73B3FBF1F3B2FBF3F3184600F03BF990
:1010CC000346002B01D001230EE07B680F2B0AD8BE
:1010DC00002279684FF0FF3000F003F9064A7B6874
:1010EC001360002300E0012318460837BD4680BD7D
:1010FC0008000020100000200C00002080B400AF7D
:10110C00054B1B781A46054B1B681344034A1360A6
:10111C0000BFBD4680BC704710000020BC00002002
:10112C0080B400AF024B1B681846BD4680BC7047AC
:10113C00BC00002080B485B000AF78607B6803F001
:10114C000703FB600C4BDB68BB60BA684FF6FF0310
:10115C001340BB60FB681A02BB68134343F0BF63C8
:10116C0043F40033BB60044ABB68D36000BF143740
:10117C00BD4680BC704700BF00ED00E080B400AFFE
:10118C00044BDB681B0A03F007031846BD4680BC02
:10119C00704700BF00ED00E080B483B000AF0346A1
:1011AC00FB7197F90730002B0BDBFB7903F01F0267
:1011BC00064997F907305B09012000FA02F241F861
:1011CC00232000BF0C37BD4680BC704700E100E017
:1011DC0080B483B000AF03463960FB7197F90730D8
:1011EC00002B0ADB3B68DAB20C4997F90730120185
:1011FC00D2B20B4483F800230AE03B68DAB2084908
:10120C00FB7903F00F03043B1201D2B20B441A76A4
:10121C0000BF0C37BD4680BC704700BF00E100E04A
:10122C0000ED00E080B489B000AFF860B9607A607E
:10123C00FB6803F00703FB61FB69C3F10703042B95
:10124C0028BF0423BB61FB690433062B02D9FB695D
:10125C00033B00E000237B614FF0FF32BB6902FAD5
:10126C0003F3DA43BB681A407B699A404FF0FF31B5
:10127C007B6901FA03F3D9437B680B40134318468F
:10128C002437BD4680BC704780B582B000AF786013
:10129C007B68013BB3F1807F01D301230FE00A4A45
:1012AC007B68013B53600F214FF0FF30FFF790FF3D
:1012BC00054B00229A60044B07221A600023184643
:1012CC000837BD4680BD00BF10E000E080B582B09D
:1012DC0000AF78607868FFF72DFF00BF0837BD4678
:1012EC0080BD80B586B000AF0346B9607A60FB73F1
:1012FC0000237B61FFF742FF78617A68B9687869EF
:10130C00FFF790FF024697F90F3011461846FFF78A
:10131C005FFF00BF1837BD4680BD80B582B000AFFF
:10132C000346FB7197F907301846FFF735FF00BFEE
:10133C000837BD4680BD80B582B000AF7860786854
:10134C00FFF7A2FF034618460837BD4680BD0000D4
:10135C0080B48BB000AF7860396000237B620023CF
:10136C003B6248E101227B6A02FA03F3FB613B68B2
:10137C001B68FA691340BB61BA69FB699A4240F079
:10138C0037813B685B68A34A93425ED0A14A934283
:10139C0075D8A14A934258D09F4A93426FD89F4A1E
:1013AC00934252D09D4A934269D89D4A93424CD065
:1013BC009B4A934263D89B4A934246D0994A9342A4
:1013CC005DD8122B2AD8122B59D801A252F823F02F
:1013DC005714000831140008431400088514000841
:1013EC008B1400088B1400088B1400088B14000855
:1013FC008B1400088B1400088B1400088B14000845
:10140C008B1400088B1400088B1400088B14000834
:10141C008B140008391400084D140008824A9342BA
:10142C0013D02CE03B68DB683B6229E03B68DB684F
:10143C0004333B6224E03B68DB6808333B621FE00B
:10144C003B68DB680C333B621AE03B689B68002B03
:10145C0002D104233B6213E03B689B68012B05D14E
:10146C0008233B627B68FA691A6109E008233B6236
:10147C007B68FA695A6103E000233B6200E000BF1D
:10148C00BB69FF2B01D87B6801E07B6804337B616F
:10149C00BB69FF2B02D87B6A9B0002E07B6A083B8E
:1014AC009B003B617B691A680F213B6901FA03F3CE
:1014BC00DB431A40396A3B6901FA03F31A437B692F
:1014CC001A603B685B6803F08053002B00F090803F
:1014DC00564B9B69554A43F001039361534B9B69EF
:1014EC0003F00103BB60BB68514A7B6A9B08023363
:1014FC0052F82330FB607B6A03F003039B000F223E
:10150C0002FA03F3DB43FA681340FB607B68494A39
:10151C0093420DD07B68484A934207D07B68474A78
:10152C00934201D1022304E0032302E0012300E0F3
:10153C0000237A6A02F0030292009340FA68134384
:10154C00FB603B497B6A9B080233FA6841F8232015
:10155C003B685B6803F48013002B06D0384B9A6809
:10156C003749BB6913438B6006E0354B9A68BB69FE
:10157C00DB43334913408B603B685B6803F4001317
:10158C00002B06D02E4BDA682D49BB691343CB6078
:10159C0006E02B4BDA68BB69DB4329491340CB606F
:1015AC003B685B6803F40033002B06D0244B5A686D
:1015BC002349BB6913434B6006E0214B5A68BB6956
:1015CC00DB431F4913404B603B685B6803F480337B
:1015DC00002B06D01A4B1A681949BB6913430B60D0
:1015EC0006E0174B1A68BB69DB43154913400B60C7
:1015FC007B6A01337B623B681A687B6A22FA03F3CD
:10160C00002B7FF4AFAE00BF00BF2C37BD4680BCB3
:10161C00704700BF00003210000031100000221093
:10162C0000002110000012100000111000100240E8
:10163C000000014000080140000C01400010014076
:10164C000004014080B485B000AF78600B467B800D
:10165C007B689A687B881340002B02D00123FB73B4
:10166C0001E00023FB73FB7B18461437BD4680BC9E
:10167C00704780B483B000AF78600B467B80134614
:10168C007B707B78002B03D07A887B681A6103E02F
:10169C007B881A047B681A6100BF0C37BD4680BC7E
:1016AC007047000080B586B000AF78607B68002B77
:1016BC0001D101236CE27B681B6803F00103002B52
:1016CC0000F08780924B5B6803F00C03042B0CD06A
:1016DC008F4B5B6803F00C03082B12D18C4B5B68AF
:1016EC0003F48033B3F5803F0BD1894B1B6803F4B3
:1016FC000033002B6CD07B685B68002B68D1012316
:10170C0046E27B685B68B3F5803F06D1804B1B6873
:10171C007F4A43F4803313602EE07B685B68002BB8
:10172C000CD17B4B1B687A4A23F480331360784BC3
:10173C001B68774A23F4802313601DE07B685B6889
:10174C00B3F5A02F0CD1724B1B68714A43F4802364
:10175C0013606F4B1B686E4A43F4803313600BE0CD
:10176C006B4B1B686A4A23F480331360684B1B680D
:10177C00674A23F4802313607B685B68002B13D0CB
:10178C00FFF7CEFC386108E0FFF7CAFC02463B6964
:10179C00D31A642B01D90323FAE15D4B1B6803F4C4
:1017AC000033002BF0D014E0FFF7BAFC386108E0EE
:1017BC00FFF7B6FC02463B69D31A642B01D903230D
:1017CC00E6E1534B1B6803F40033002BF0D100E02F
:1017DC0000BF7B681B6803F00203002B63D04C4BEB
:1017EC005B6803F00C03002B0BD0494B5B6803F0D8
:1017FC000C03082B1CD1464B5B6803F48033002B85
:10180C0016D1434B1B6803F00203002B05D07B68F9
:10181C001B69012B01D00123BAE13D4B1B6823F05E
:10182C00F8027B685B69DB00394913430B603AE0D3
:10183C007B681B69002B20D0364B01221A60FFF706
:10184C006FFC386108E0FFF76BFC02463B69D31A6A
:10185C00022B01D903239BE12D4B1B6803F00203E0
:10186C00002BF0D02A4B1B6823F0F8027B685B69D5
:10187C00DB00274913430B6015E0264B00221A604E
:10188C00FFF74EFC386108E0FFF74AFC02463B6963
:10189C00D31A022B01D903237AE11D4B1B6803F0E9
:1018AC000203002BF0D17B681B6803F00803002BAC
:1018BC003AD07B689B69002B19D0174B01221A6018
:1018CC00FFF72EFC386108E0FFF72AFC02463B6963
:1018DC00D31A022B01D903235AE10D4B5B6A03F097
:1018EC000203002BF0D0012000F09AFA1CE00A4B06
:1018FC0000221A60FFF714FC38610FE0FFF710FCB0
:10190C0002463B69D31A022B08D9032340E100BFDE
:10191C000010024000004242800442429E4B5B6A2F
:10192C0003F00203002BE9D17B681B6803F004036E
:10193C00002B00F0A6800023FB75974BDB6903F0AE
:10194C008053002B0DD1944BDB69934A43F08053A9
:10195C00D361914BDB6903F08053BB60BB680123FF
:10196C00FB758E4B1B6803F48073002B18D18B4BCB
:10197C001B688A4A43F480731360FFF7D1FB38610C
:10198C0008E0FFF7CDFB02463B69D31A642B01D963
:10199C000323FDE0814B1B6803F48073002BF0D014
:1019AC007B68DB68012B06D17B4B1B6A7A4A43F0C0
:1019BC00010313622DE07B68DB68002B0CD1764BA6
:1019CC001B6A754A23F001031362734B1B6A724A3C
:1019DC0023F0040313621CE07B68DB68052B0CD13D
:1019EC006D4B1B6A6C4A43F0040313626A4B1B6A0F
:1019FC00694A43F0010313620BE0674B1B6A664AAA
:101A0C0023F001031362644B1B6A634A23F0040343
:101A1C0013627B68DB68002B15D0FFF781FB386104
:101A2C000AE0FFF77DFB02463B69D31A41F288328C
:101A3C00934201D90323ABE0574B1B6A03F002031B
:101A4C00002BEED014E0FFF76BFB38610AE0FFF7D8
:101A5C0067FB02463B69D31A41F28832934201D9A3
:101A6C00032395E04C4B1B6A03F00203002BEED1D1
:101A7C00FB7D012B05D1484BDB69474A23F0805392
:101A8C00D3617B68DB69002B00F08180424B5B6883
:101A9C0003F00C03082B61D07B68DB69022B46D169
:101AAC003F4B00221A60FFF73BFB386108E0FFF761
:101ABC0037FB02463B69D31A022B01D9032367E09B
:101ACC00354B1B6803F00073002BF0D17B681B6A4D
:101ADC00B3F5803F08D1304B5B6823F400327B6850
:101AEC009B682D4913434B602B4B5B6823F474129A
:101AFC007B68196A7B685B6A0B43274913434B600D
:101B0C00274B01221A60FFF70BFB386108E0FFF747
:101B1C0007FB02463B69D31A022B01D9032337E09A
:101B2C001D4B1B6803F00073002BF0D02FE01C4BF7
:101B3C0000221A60FFF7F4FA386108E0FFF7F0FAB8
:101B4C0002463B69D31A022B01D9032320E0124B26
:101B5C001B6803F00073002BF0D118E07B68DB6985
:101B6C00012B01D1012313E00B4B5B68FB60FB687D
:101B7C0003F480327B681B6A9A4206D1FB6803F43B
:101B8C0070127B685B6A9A4201D0012300E000234B
:101B9C0018461837BD4680BD00100240007000404A
:101BAC006000424280B584B000AF786039607B68D9
:101BBC00002B01D10123D0E06A4B1B6803F0070313
:101BCC003A689A4210D9674B1B6823F007026549A3
:101BDC003B6813430B60634B1B6803F007033A68C5
:101BEC009A4201D00123B8E07B681B6803F0020322
:101BFC00002B20D07B681B6803F00403002B05D05E
:101C0C00594B5B68584A43F4E06353607B681B682C
:101C1C0003F00803002B05D0534B5B68524A43F486
:101C2C0060535360504B5B6823F0F0027B689B68F9
:101C3C004D4913434B607B681B6803F00103002B79
:101C4C0040D07B685B68012B07D1474B1B6803F4C2
:101C5C000033002B15D101237FE07B685B68022BDE
:101C6C0007D1414B1B6803F00073002B09D10123F2
:101C7C0073E03D4B1B6803F00203002B01D10123E1
:101C8C006BE0394B5B6823F003027B685B68364979
:101C9C0013434B60FFF744FAF8600AE0FFF740FA91
:101CAC000246FB68D31A41F28832934201D90323CE
:101CBC0053E02D4B5B6803F00C027B685B689B0068
:101CCC009A42EBD1274B1B6803F007033A689A4200
:101CDC0010D2244B1B6823F0070222493B681343A4
:101CEC000B60204B1B6803F007033A689A4201D043
:101CFC00012332E07B681B6803F00403002B08D03F
:101D0C00194B5B6823F4E0627B68DB68164913436C
:101D1C004B607B681B6803F00803002B09D0124B47
:101D2C005B6823F460527B681B69DB000E4913432C
:101D3C004B6000F021F802460B4B5B681B0903F06B
:101D4C000F030A49CB5C22FA03F3094A1360094BCF
:101D5C001B681846FFF7A2F9002318461037BD463A
:101D6C0080BD00BF0020024000100240A4260008E5
:101D7C00080000200C00002080B487B000AF0023C6
:101D8C00FB600023BB6000237B6100237B6000238E
:101D9C003B611E4B5B68FB60FB6803F00C03042B80
:101DAC0002D0082B03D027E0194B3B6127E0FB68DE
:101DBC009B0C03F00F03174AD35C7B60FB6803F4A6
:101DCC008033002B10D0114B5B685B0C03F00103CC
:101DDC00114AD35CBB607B680D4A02FB03F2BB6803
:101DEC00B2FBF3F37B6104E07B680C4A02FB03F368
:101DFC007B617B693B6102E0054B3B6100BF3B694A
:101E0C0018461C37BD4680BC704700BF001002400E
:101E1C0000127A00B4260008C426000800093D0010
:101E2C0080B485B000AF78600A4B1B680A4AA2FBED
:101E3C0003235B0A7A6802FB03F3FB6000BFFB68B9
:101E4C005A1EFA60002BF9D100BF00BF1437BD46F3
:101E5C0080BC704708000020D34D621080B582B062
:101E6C0000AF78607B68002B01D1012341E07B68D7
:101E7C0093F83D30DBB2002B06D17B68002283F84F
:101E8C003C207868FFF772F87B68022283F83D20CB
:101E9C007B681A687B6804331946104600F056FAC2
:101EAC007B68012283F846207B68012283F83E2060
:101EBC007B68012283F83F207B68012283F8402055
:101ECC007B68012283F841207B68012283F8422041
:101EDC007B68012283F843207B68012283F844202D
:101EEC007B68012283F845207B68012283F83D2022
:101EFC00002318460837BD4680BD000080B485B06D
:101F0C0000AF78607B6893F83D30DBB2012B01D0D9
:101F1C00012335E07B68022283F83D207B681B6837
:101F2C00DA687B681B6842F00102DA607B681B6828
:101F3C00164A934209D07B681B68B3F1804F04D0DA
:101F4C007B681B68124A934211D17B681B689B68A3
:101F5C0003F00703FB60FB68062B10D07B681B6843
:101F6C001A687B681B6842F001021A6007E07B6804
:101F7C001B681A687B681B6842F001021A60002318
:101F8C0018461437BD4680BC704700BF002C01407A
:101F9C000004004080B584B000AF78607B681B689B
:101FAC00DB68FB607B681B681B69BB60BB6803F06C
:101FBC000203002B20D0FB6803F00203002B1BD084
:101FCC007B681B686FF002021A617B6801221A772A
:101FDC007B681B689B6903F00303002B03D07868B4
:101FEC0000F098F905E0786800F08BF9786800F05B
:101FFC009AF97B6800221A77BB6803F00403002B64
:10200C0020D0FB6803F00403002B1BD07B681B68FB
:10201C006FF004021A617B6802221A777B681B68D6
:10202C009B6903F44073002B03D0786800F072F9BD
:10203C0005E0786800F065F9786800F074F97B6861
:10204C0000221A77BB6803F00803002B20D0FB6832
:10205C0003F00803002B1BD07B681B686FF0080291
:10206C001A617B6804221A777B681B68DB6903F0B2
:10207C000303002B03D0786800F04CF905E0786876
:10208C0000F03FF9786800F04EF97B6800221A776F
:10209C00BB6803F01003002B20D0FB6803F0100387
:1020AC00002B1BD07B681B686FF010021A617B68D9
:1020BC0008221A777B681B68DB6903F44073002BDA
:1020CC0003D0786800F026F905E0786800F019F97B
:1020DC00786800F028F97B6800221A77BB6803F057
:1020EC000103002B0CD0FB6803F00103002B07D07D
:1020FC007B681B686FF001021A617868FEF7D4FEEA
:10210C00BB6803F08003002B0CD0FB6803F080034A
:10211C00002B07D07B681B686FF080021A6178680F
:10212C0000F06FFABB6803F04003002B0CD0FB6887
:10213C0003F04003002B07D07B681B686FF0400254
:10214C001A61786800F0F8F8BB6803F02003002BE4
:10215C000CD0FB6803F02003002B07D07B681B68B6
:10216C006FF020021A61786800F042FA00BF103755
:10217C00BD4680BD80B584B000AF78603960002367
:10218C00FB737B6893F83C30012B01D10223B4E044
:10219C007B68012283F83C207B68022283F83D2077
:1021AC007B681B689B68BB60BB6823F07703BB60D4
:1021BC00BB6823F47F43BB607B681B68BA689A607A
:1021CC003B681B68B3F5005F3ED0B3F5005F00F2CF
:1021DC008780B3F5805F00F08680B3F5805F7FD891
:1021EC00702B1AD0702B7BD8602B50D0602B77D8EB
:1021FC00502B3CD0502B73D8402B58D0402B6FD841
:10220C00302B64D0302B6BD8202B60D0202B67D890
:10221C00002B5CD0102B5AD062E07B6818683B68AE
:10222C0099683B685A683B68DB6800F06AF97B6820
:10223C001B689B68BB60BB6843F07703BB607B6823
:10224C001B68BA689A604FE07B6818683B689968AD
:10225C003B685A683B68DB6800F053F97B681B6885
:10226C009A687B681B6842F480429A603CE07B6809
:10227C0018683B6859683B68DB681A4600F0CAF876
:10228C007B681B685021184600F021F92CE07B6814
:10229C0018683B6859683B68DB681A4600F0E8F838
:1022AC007B681B686021184600F011F91CE07B6804
:1022BC0018683B6859683B68DB681A4600F0AAF856
:1022CC007B681B684021184600F001F90CE07B6824
:1022DC001A683B681B681946104600F0F8F803E0D2
:1022EC000123FB7300E000BF7B68012283F83D20D3
:1022FC007B68002283F83C20FB7B18461037BD46D8
:10230C0080BD80B483B000AF786000BF0C37BD4691
:10231C0080BC704780B483B000AF786000BF0C37CE
:10232C00BD4680BC704780B483B000AF786000BFFE
:10233C000C37BD4680BC704780B483B000AF78606A
:10234C0000BF0C37BD4680BC7047000080B485B020
:10235C0000AF786039607B681B68FB607B682B4A38
:10236C00934207D07B68B3F1804F03D07B68284A37
:10237C00934208D1FB6823F07003FB603B685B68F9
:10238C00FA681343FB607B68204A934207D07B6852
:10239C00B3F1804F03D07B681D4A934208D1FB6890
:1023AC0023F44073FB603B68DB68FA681343FB6003
:1023BC00FB6823F080023B685B691343FB607B681E
:1023CC00FA681A603B689A687B68DA623B681A683C
:1023DC007B689A627B680D4A934203D13B681A6909
:1023EC007B681A637B6801225A617B681B6903F066
:1023FC000103002B05D07B681B6923F001027B686D
:10240C001A6100BF1437BD4680BC7047002C0140D8
:10241C000004004080B487B000AFF860B9607A6007
:10242C00FB681B6A7B61FB681B6A23F00102FB687B
:10243C001A62FB689B693B613B6923F0F0033B61CB
:10244C007B681B013A6913433B617B6923F00A03E8
:10245C007B617A69BB6813437B61FB683A699A615B
:10246C00FB687A691A6200BF1C37BD4680BC704796
:10247C0080B487B000AFF860B9607A60FB681B6A03
:10248C007B61FB681B6A23F01002FB681A62FB6815
:10249C009B693B613B6923F470433B617B681B0385
:1024AC003A6913433B617B6923F0A0037B61BB68F2
:1024BC001B017A6913437B61FB683A699A61FB687B
:1024CC007A691A6200BF1C37BD4680BC704780B465
:1024DC0085B000AF786039607B689B68FB60FB68F7
:1024EC0023F07003FB603A68FB68134343F0070367
:1024FC00FB607B68FA689A6000BF1437BD4680BCED
:10250C00704780B487B000AFF860B9607A603B6008
:10251C00FB689B687B617B6923F47F437B613B6831
:10252C001A027B681A43BB6813437A6913437B61B5
:10253C00FB687A699A6000BF1C37BD4680BC704747
:10254C0080B485B000AF786039607B6893F83C301C
:10255C00012B01D1022341E07B68012283F83C204E
:10256C007B68022283F83D207B681B685B68FB60FC
:10257C007B681B689B68BB60FB6823F07003FB6087
:10258C003B681B68FA681343FB607B681B68FA683E
:10259C005A607B681B68144A934209D07B681B689D
:1025AC00B3F1804F04D07B681B68104A93420CD166
:1025BC00BB6823F08003BB603B685B68BA6813435D
:1025CC00BB607B681B68BA689A607B68012283F8E1
:1025DC003D207B68002283F83C20002318461437EA
:1025EC00BD4680BC704700BF002C01400004004079
:1025FC0080B483B000AF786000BF0C37BD4680BCA0
:10260C00704780B483B000AF786000BF0C37BD4614
:10261C0080BC704770B500260C4D0D4C641BA4108B
:10262C00A64209D100F022F800260A4D0A4C641B80
:10263C00A410A64205D170BD55F8043B984701364D
:10264C00EEE755F8043B98470136F2E7C826000838
:10265C00C8260008C8260008CC26000803460244F9
:10266C00934200D1704703F8011BF9E7F8B500BF9E
:10267C00F8BC08BC9E467047F8B500BFF8BC08BC57
:04268C009E467047AF
:10269000007E000C00B6009E00CC00DA00FA000EAE
:1026A00000FE00DE00000000000000000102030444
:1026B0000607080902030405060708090A0B0C0DA2
:0826C0000E0F101001020000D2
:0426C80031010008D4
:0426CC000D010008F4
:1026D000FF0A030D0A030D0000127A00100000002B
:0426E00001000000F5
:0400000508001031AE
:00000001FF
